:020000040800F2
:10000000380A0020ED010008DD4D0008BD4400085D
:10001000514C000839050008C95A000800000000CA
:10002000000000000000000000000000E14D00089A
:100030000306000800000000DF4D0008E34D000843
:10004000070200080702000807020008070200086C
:10005000070200080702000807020008070200085C
:100060000702000807020008070200083D05000813
:1000700049050008070200080702000807020008F7
:1000800007020008000000002D0300080702000816
:10009000070200080702000807020008070200081C
:1000A000070200080702000807020008070200080C
:1000B00007020008070200080702000807020008FC
:1000C00007020008070200080702000807020008EC
:1000D000070200080702000807020008BD5A0008CE
:1000E00005060008070200080702000807020008CA
:1000F00007020008070200080702000800000000CD
:1001000000000000070200080000000007020008CD
:1001100007020008000000000702000807020008AC
:10012000070200080702000807020008070200088B
:10013000070200080000000000000000070200089D
:10014000070200080702000800000000000000008D
:10015000000000000000000000000000000000009F
:10016000000000000000000000000000070200087E
:10017000070200080000000000000000000000006E
:10018000000000000702000800000000000000005E
:10019000000000000000000000000000000000005F
:1001A000000000000000000007020008070200082D
:1001B000070200080702000807020008000000000C
:1001C000000000000702000800000000000000001E
:1001D0000702000807020008DFF80CD000F094F8CE
:1001E000004800474D6C0008380A00200648804748
:1001F00006480047FEE7FEE7FEE7FEE7FEE7FEE70C
:10020000FEE7FEE7FEE7FEE7594E0008D9010008C9
:100210002DE9F05F0546002092469B46884606463B
:10022000814640241BE0284641464746224600F0CE
:1002300058F853465A46C01A914110D311461846F1
:10024000224600F03FF82D1A67EB01084F46224680
:100250000120002100F036F817EB00094E41201E66
:10026000A4F10104DFDC484631462A464346BDE896
:10027000F09F000000487047D06F000840EA01037B
:100280009B0703D009E008C9121F08C0042AFAD24C
:1002900003E011F8013B00F8013B521EF9D2704710
:1002A000D2B201E000F8012B491EFBD270470022B8
:1002B000F6E710B513460A4604461946FFF7F0FF65
:1002C000204610BD202A04DB203A00FA02F100206B
:1002D00070479140C2F1200320FA03F31943904084
:1002E0007047202A04DB203A21FA02F000217047EF
:1002F00021FA02F3D040C2F120029140084319468E
:100300007047002070470000064C074D06E0E0688B
:1003100040F0010394E8070098471034AC42F6D34C
:10032000FFF75EFFF46F00081470000810B5044872
:1003300001F0FAF8BDE81040024801F0F5B80000FD
:1003400060000020CC00002070B504460068816881
:100350008268C1F3400112F0010F28D039BB8168D7
:1003600001F00D01012914D18168124A1140891C44
:10037000816021680320086002F008F9054612E058
:1003800002F004F9401B02280DD920688068C007DC
:1003900009D0E06D40F01000E065206E40F00100F3
:1003A0002066012070BD20688068C007E8D1002069
:1003B00070BD0000C0FFFF7FF8B50446002000902C
:1003C0002068816811F0010F41D18168214A1142F2
:1003D0002ED18168D5432940491C81601E48806820
:1003E00000F0E07000020DD51C481D490068B0FB0C
:1003F000F1F0401C00EB4000800000E0401E009047
:100400000028FBD102F0C2F806461BE0816811F01B
:10041000010F03D181682940491C816002F0B6F8C0
:10042000801B02280ED920680068C043C00709D08D
:10043000E06D40F01000E065206E40F001002066A5
:100440000120F8BD20680168C943C907DED100203A
:10045000F8BD00003F0000800003005010000020A5
:10046000400D030010B5274802F0ECF9264802F0D1
:10047000E9F9264802F0E6F97F21254800F0E4F981
:100480007F21244800F0E0F9214820210268116012
:100490000068042202601F48006801601C4800F0E8
:1004A00029FD1C4800F0B2FC1B4803F073F9194801
:1004B00001F0F6FA0C21184803F0FCFB1749102054
:1004C000096808620E221649144803F0E8FC00226D
:1004D00040F68E331146134801F048FD00211148C3
:1004E00001F056FD104801F00DFC104803F052F9E0
:1004F0003C210E4803F088FA0E489FED0D0A80ED6E
:10050000040A10BD70010020AC010020E8010020A9
:1005100060000020CC000020880200202003002082
:10052000BC0400205C01002038010020D40200201F
:100530000080BB4400060020FEE70000014801F0F7
:10054000DBBD0000B4030020014801F0D5BD000070
:100550001404002010B501680E4CCAB21423083AE6
:10056000A14203D2B2FBF3F20B4904E0B2FBF3F277
:1005700009492031921D436C02F01F0223F003034E
:100580001944816404498031C164012191400165AD
:1005900010BD000008040240000802400179084A2A
:1005A00001F07F0102EB81024265054A4432491E97
:1005B000826501F01F0201219140C1657047000072
:1005C000FC08024030B5D0E913456560446D14B1B4
:1005D000D0E91645656090F8444004F01F050124F9
:1005E000AC40056C6C60046863608368102B036822
:1005F00003D099600068C26030BD9A600068C16035
:1006000030BD704710B54FF4806001F08BFE4FF4A1
:10061000006001F087FEBDE810404FF4005001F08B
:1006200081BE72B6FEE700002DE9F04150484E4908
:100630004E4A06684F488F781268002FB0F8423053
:10064000B0F84440B0F8465052F8807F46D0BFB270
:100650008F80D6F88060B6B2CE80526892B20A819E
:10066000F91A00EE101AF8EEC00A9FED430A311B8A
:1006700001EE101A511B01EE901AB8EEC11A60EE8D
:10068000800AF8EEE11A00F11C0721EE001A3B4C3B
:1006900061EE801AC7EC030A2168496A9FED382A87
:1006A00089B200EE101AA0F84C11B8EE400A20EE04
:1006B000020A9FED342A20EE020AB1EE002A20EE53
:1006C000020A80ED540A3048C0EC030A05F0AAFF84
:1006D0002E480068B0F1804F24D026E03B449BB206
:1006E000A0F84230D6F880603444A4B2A0F8444068
:1006F00052682A4492B2A0F846204D786D1CEDB2A3
:100700004D700A2D0CD301258D700A21B3FBF1F336
:1007100020F8423FB4FBF1F3B2FBF1F1438081805A
:10072000BDE8F0812168002048621948194A90ED1F
:10073000000ABCEEC00A10EE101A116090ED010A1A
:10074000121DBCEEC00A10EE101A116090ED020AE4
:10075000111DBCEEC00A10EE100A08600D4910EE23
:10076000100A14310860DBE734000020600000202C
:10077000CC000020740400200000B43CD40200200F
:10078000DB0FC9400000803900060020480000202F
:100790001C060020342C014070B504F05BFA04F014
:1007A000E3FA174C174D20782978884205D00128A4
:1007B00023D004F0B5FA2078287013480068016946
:1007C000C943090604D4032121706FF0800101613F
:1007D00000F01EF80D4884ED0D0A80ED050AB4F90D
:1007E000021000EE101AB8EEC00A80ED040A03F001
:1007F00067FEBDE8704003F077BE04F065FADAE703
:10080000740400203400002088020020000600202C
:1008100010B50A4800F084FE80B200EE100ADFED49
:10082000080AB8EE400A20EE200ADFED060A20EEA4
:10083000200AF3EE0A0A20EE200A10BDCC000020A8
:100840003333534000008039F8B500260446009643
:1008500090F858000D4601280BD0012084F858006C
:100860002046FFF771FD0100E06D04D040F010005C
:100870002AE00220F8BD20F4885040F00200E06534
:1008800020688268134B1A4005F080431A4342F0F7
:1008900000428260104A20680EE0009B5B1C0093BF
:1008A000934209D3E06D20F0020040F01000E065B3
:1008B00084F858600120F8BD8368DB0FEDD1E06D4E
:1008C00020F0020040F00100E06584F8586008461E
:1008D000F8BD0000C0FFFF3F02DE040070470000CB
:1008E0002DE9F84F4FF000080446CDF800800D4682
:1008F00094F85820DFF8EC93616947464046012A96
:100900000AD00126F84A84F8586041B1296A0129C1
:1009100005D0A36EEBB129E00220BDE8F88F68682E
:10092000092838D1A96A4FF4785041B12B6801F0F9
:100930007C0100EA53400843E96A084302E0296861
:1009400000EA51402168CB6C13400343CB646066DE
:1009500021E0C4E91971A96A286A31B101F07C016A
:10096000401E0843E96A084300E0401E29682B79CD
:10097000C1F3846103F01F0399400143A06E401E40
:10098000A066636E43EA0103636604D12068C16C0C
:1009900011401943C164206803F0D6FD58B995F899
:1009A000250098B12068C16895F8262021F44011EF
:1009B00041EA4251C160206803F0CEFD82462068C2
:1009C00003F0C2FD5AEA00000DD0FBE095F82600C6
:1009D00095F82410400540EA01512068C26822F4CD
:1009E00040121143E6E7A86A30B1E86A20B195F8F1
:1009F000250001285ED003E095F82500012804D0E9
:100A00002068C16821F0007103E02068C16841F0EE
:100A10000071C16095F83000012852D0206801694A
:100A200021F002010161AA6829682068B2F1004F33
:100A300038D003F0ACFD2068416921F000414161EC
:100A400020686969C268C2F3C102520091402A69F4
:100A5000042A44D000EB82002B68026EDFF88CC2BF
:100A600003F0F84302EA0C020B431A4342F0004140
:100A7000016620682A69A96900EB8200026E22F0F3
:100A800080720A430266297F22682869012923D0DF
:100A90005FF0000102EB8000026E22F000720A4358
:100AA00002668FE0002203F072FD2068416941F088
:100AB0000041C4E7E06D40F02000E0654FF0010820
:100AC000A8E7D5E90D1001432068026922F4FF72FE
:100AD00042F002021143A5E74FF00071DAE700216E
:100AE00003F028FD400320684FF0000172D003F0AE
:100AF00021FD90FAA0F0B0FA80F1286842036ED090
:100B000090FAA0F0B0FA80F0814204D100221146A0
:100B1000206803F053FD0121206803F00BFD400322
:100B200020684FF001015DD003F004FD90FAA0F0C1
:100B3000B0FA80F12868420359D090FAA0F0B0FAD8
:100B400080F0814204D100220121206803F036FDAB
:100B50000221206803F0EEFC400320684FF0020100
:100B600048D003F0E7FC90FAA0F0B0FA80F12868D2
:100B7000420344D090FAA0F0B0FA80F0814204D150
:100B800000220221206803F019FD0321206803F0F0
:100B9000D1FC400320684FF0030133D003F0CAFCBE
:100BA00090FAA0F0B0FA80F1286842032FD090FAB2
:100BB000A0F0B0FA80F0814204D100220321206825
:100BC00003F0FCFC2068816811F0010F22D0B6E030
:100BD00000E004E003F0AEFCC0F384618DE7C0F3F5
:100BE000846091E703F0A6FCC0F38461A2E7C0F340
:100BF0008460A6E703F09EFCC0F38461B7E7C0F30E
:100C00008460BBE703F096FCC0F38461CCE7C0F3DB
:100C10008460D0E72A7B296850F8B03FC1F3120CFA
:100C200023EA0C0302F0180C314A22FA0CF20A40B3
:100C300013430360E96849457ED1286841031CD00D
:100C400090FAA0F1B1FA81F1491C01F01F010929C4
:100C50004FEA403132D8002912D000BF90FAA0F1FB
:100C6000B1FA81F101F1010101F01F0106FA01F66B
:100C700009D100BFC0F3846109E0C0F38461E3E7F8
:100C8000C0F38461EEE790FAA0F1B1FA81F101F1CD
:100C9000010101F01F0146EA816102D1C0F38460C5
:100CA00003E090FAA0F0B0FA80F000F1010000F04B
:100CB0001F0000EB400041EA00513AE000290ED04D
:100CC00090FAA0F1B1FA81F101F1010101F01F01E7
:100CD00006FA01F60ED100BFC0F384610EE0C0F346
:100CE0008461F1E700007F400040100400F0FF0342
:100CF000FFFF070090FAA0F1B1FA81F101F10101C3
:100D000001F01F0146EA816102D1C0F3846003E073
:100D100090FAA0F0B0FA80F000F1010000F01F009E
:100D20002B4A00EB400002EB005041EA000141F089
:100D30000071AA68206800E001E003F028FC254863
:100D40002A68024240D024488168244B01F0E071B7
:100D50009A4202D0224B9A421BD10B0219D422682C
:100D6000B2F1A04F30D1826841F4000122F0E0726C
:100D70000A4382601B481C490068B0FBF1F0801CEC
:100D800000EB4000800000E0401E00900028FBD1F6
:100D90001AE0164D164BAA4207D1CD0105D42268A0
:100DA0009A4211D041F0807109E0124DAA420BD154
:100DB0004A0209D422689A4206D041F4800182682E
:100DC00022F0E0720A43826084F858704046A4E53D
:100DD000000020FE0000088000030050000021C336
:100DE0001000C09010000020400D0300000052C70A
:100DF00000010050000084CB0249884201D1FFF776
:100E000013BC704760000020704700002DE9F041DE
:100E100004463548806800F01F05206803F094FB05
:100E200008BB2168C868C96C00F0004011F4C07F9D
:100E300000D190B194F85800012814D0012084F812
:100E400058002046FFF7B8FA02004FF000030CD01C
:100E500084F858301046BDE8F081E06D40F0200085
:100E6000E0650120F7E70220F5E7E06DC00504D555
:100E7000206E20F00800206600E02366E06D42F25C
:100E80000101884340F48050E065184F21684FF01D
:100E9000A046B94201D1304600E00846884200D061
:100EA0001DB9E06D20F48010E0656020086084F8D2
:100EB00058302068B84200D00646864209D045B175
:100EC000062D06D0072D04D0E06D40F48010E065BB
:100ED000C0E7C16811F0007FBCD18168044B1940A4
:100EE00041F008018160B5E70003005000010050A7
:100EF000C0FFFF7F2DE9F04104464548806800F0BF
:100F00001F05206803F020FB08BB2168C868C96C76
:100F100000F0004011F4C07F00D190B194F8580067
:100F2000012814D0012084F858002046FFF744FA25
:100F300001004FF000020CD084F858200846BDE8AC
:100F4000F081E06D40F02000E0650120F7E702202D
:100F5000F5E7E06DC00504D5206E20F0080020669E
:100F600000E02266E06D42F20103984340F48050B5
:100F7000E065284B20684FF0A046984201D13746E3
:100F800000E00746874200D01DB9E76D27F48017BF
:100F9000E7656027076084F858202068C2689202DD
:100FA00003D5426842F480624260A0690828206844
:100FB000426807D022F0400242602068426842F056
:100FC000200206E022F0200242602068426842F0DF
:100FD000400242602068984201D1324600E0024659
:100FE000824209D045B1062D06D0072D04D0E06D10
:100FF00040F48010E065A1E7C26812F0007F9DD147
:101000008268054B1A4042F00802826096E70000B1
:101010000003005000010050C0FFFF7F7047704781
:101020002DE9F047044690F858009CB00E464FF06A
:101030000009012815D0012084F8580000251795D3
:10104000189520684FF0A04840450ED1284F0097D2
:10105000384603F081FA8246206803F07DFA60B1D9
:101060000EE002201CB0BDE8F087E06D40F02000EB
:10107000E06584F858500120F4E7BAF1000F09D078
:10108000E06D40F02000E0654FF0010984F8585011
:101090004846E7E71748326840F61F71002A826821
:1010A00022F4604216D094F8383042EA4332736832
:1010B0001A438260D8F80820BB6802F0010203F0EE
:1010C00001031A43E2D1B36832681A4383688B4341
:1010D0001A430BE08260D8F80820BB6802F00102D6
:1010E00003F001031A43D1D182688A438260CDE7BD
:1010F00000010050000300502DE9F84F002704467E
:10110000009790F85800DFF8E0930D46B8460128A4
:1011100011D0012684F85860206803F019FA60B1F4
:10112000E06D40F02000E0655FF0010784F8588032
:101130003846BDE8F88F0220FBE7D5E900210C23F3
:10114000206803EA91131844036B01F01F014FF06C
:101150001F0C0CFA01FCC2F3846223EA0C038A40E0
:1011600013430363206803F0F3F98246206803F019
:10117000E7F95AEA00003CD1AA6829682068B2F170
:10118000004F37D003F0F4F92068416921F00041A5
:10119000416120686969C268C2F3C102520091408E
:1011A0002A69042A31D000EB82002B68026EDFF836
:1011B0003CC303F0F84302EA0C020B431A4342F02B
:1011C0000041016620682A69A96900EB8200026E6D
:1011D00022F080720A430266297F22682869012969
:1011E00010D0002102EB8000026E22F000720A4350
:1011F00002667DE0002203F0BBF92068416941F0FE
:101200000041C5E74FF00071ECE7002103F08CF9D5
:10121000400320684FF0000172D003F085F990FA86
:10122000A0F0B0FA80F1286842036ED090FAA0F0E6
:10123000B0FA80F0814204D100221146206803F008
:10124000B5F90121206803F06FF9400320684FF0E1
:1012500001015DD003F068F990FAA0F0B0FA80F1D6
:101260002868420359D090FAA0F0B0FA80F0814289
:1012700004D100220121206803F098F9022120689E
:1012800003F052F9400320684FF0020148D003F008
:101290004BF990FAA0F0B0FA80F12868420344D0EC
:1012A00090FAA0F0B0FA80F0814204D1002202212D
:1012B000206803F07BF90321206803F035F940032F
:1012C00020684FF0030133D003F02EF990FAA0F01C
:1012D000B0FA80F1286842032FD090FAA0F0B0FA5B
:1012E00080F0814204D100220321206803F05EF9DE
:1012F0002068816811F0010F22D0ACE000E004E02A
:1013000003F012F9C0F384618DE7C0F3846091E7C4
:1013100003F00AF9C0F38461A2E7C0F38460A6E792
:1013200003F002F9C0F38461B7E7C0F38460BBE760
:1013300003F0FAF8C0F38461CCE7C0F38460D0E72F
:101340002A7B296850F8B03FC1F3120C23EA0C0342
:1013500002F0180C664A22FA0CF20A4013430360AA
:10136000E968494577D1286841031CD090FAA0F17B
:10137000B1FA81F1491C01F01F0109294FEA4031FE
:1013800032D8002912D000BF90FAA0F1B1FA81F151
:1013900001F1010101F01F0106FA01F609D100BFB8
:1013A000C0F3846109E0C0F38461E3E7C0F38461C2
:1013B000EEE790FAA0F1B1FA81F101F1010101F03B
:1013C0001F0146EA816102D1C0F3846003E090FA14
:1013D000A0F0B0FA80F000F1010000F01F0000EB77
:1013E000400041EA005132E000290ED090FAA0F10D
:1013F000B1FA81F101F1010101F01F0106FA01F6D4
:1014000006D100BFC0F3846106E0C0F38461F1E758
:1014100090FAA0F1B1FA81F101F1010101F01F018F
:1014200046EA816102D1C0F3846003E090FAA0F043
:10143000B0FA80F000F1010000F01F002D4A00EB2F
:10144000400002EB005041EA000141F00071AA683F
:10145000206803F08DF828482A6802423FF466AEFF
:1014600026488168264B01F0E0719A4202D0254B54
:101470009A421CD10B021AD42268B2F1A04F7FF419
:1014800055AE826841F4000122F0E0720A438260A6
:101490001D481E490068B0FBF1F0401C00EB400005
:1014A000800000E0401E00900028FBD13EE6184D71
:1014B000184BAA4207D1CD0105D422689A42F5D033
:1014C00041F0807109E0144DAA42EFD14A02EDD4F7
:1014D00022689A42EAD041F48001826822F0E072E8
:1014E0000A43826022E6000000007F4000F0FF0314
:1014F000FFFF0700000020FE0000088000030050EE
:10150000000021C31000C09010000020400D030017
:10151000000052C700010050000084CB70477047A4
:101520000068006C704700002DE9F05F0446006819
:1015300006684568DFF854B2DBF8080000F01F07C2
:10154000B0070ED5A8070CD5E06DC00603D4E06D3A
:1015500040F40060E0652046FFF7C0F921680220F2
:101560000860DFF82CA270074FF0A04801D568078B
:1015700003D4300737D5280735D5E06DC00603D42E
:10158000E06D40F40070E065206802F0E9FF20B3F0
:101590002068504501D1424600E00246824208D010
:1015A0003FB1052F05D0092F03D0504503D1414647
:1015B00002E0C16801E00146C96889040DD40168F0
:1015C00009070AD502F0C4FF58B3E06D40F01000DF
:1015D000E065206E40F0010020662046FFF79EFF88
:1015E00021680C200860B00601D5A80603D4700657
:1015F00058D5680656D5E06DC00603D4E06D40F4BA
:101600000050E0652068C16C11F4C07F1AD0002141
:10161000894602F0A5FF02462068504514D1434692
:1016200013E02068416821F00C014160E06D20F476
:101630008070E065E06DC004CFD4E06D40F0010043
:10164000E065CAE70121E3E70346834208D03FB1E2
:10165000062F05D0072F03D0504503D1414602E0A5
:10166000C16801E00146C968B9F1000F14D08B01CF
:1016700002D58AB18A040FD4026852060CD58902B9
:101680000AD402F05DFFE8B3E06D40F01000E065C1
:10169000206E40F0010020662046FFF7ADFB216878
:1016A0006020086030060BD5280609D5E06D40F4AF
:1016B0008030E065204600F067F9216880200860EE
:1016C000F0050CD5E8050AD5E06D40F40030E06582
:1016D0002046FFF7A3FC21684FF480700860B00536
:1016E0000CD5A8050AD5E06D40F48020E0652046C1
:1016F000FFF795FC21684FF400700860F0062ED5C6
:10170000E80600E008E02AD5E06BD0B1AFB1DBF825
:10171000080000F4604013E02068416821F0600197
:101720004160E06D20F48050E065E06DC005B3D409
:10173000E06D40F00100E065AEE72068C068C007DA
:1017400050B1E06D40F48060E065206E40F0020032
:1017500020662046FFF7E3FE216810200860700530
:1017600012D5680510D5E06D40F48040E065206E2C
:1017700040F00800206621684FF480600860204631
:10178000BDE8F05FFFF740BBBDE8F09F00030050ED
:1017900000010050F8B54FF0000504002E460095FA
:1017A00002D0E06D10B107E00120F8BD204600F046
:1017B000EDF8266684F8586020688168C1F34071AE
:1017C00019B18168684A1140816020688168C1F35D
:1017D000007189B98168654A114041F0805181608A
:1017E000634864490068B0FBF1F04000801C00E0F1
:1017F000401E00900028FBD120688168C1F3007171
:1018000041B9E16D41F01001E165216E41F0010146
:101810002166012502F09CFEE16DC90600D430B1BD
:10182000E06D40F01000E06501252846F8BDE06D50
:1018300020F4807040F00200E0652068806810F0BD
:10184000010F11D14FF0A04080684B4900F001001A
:10185000896801F00101084306D14848616882683F
:1018600022F47C120A438260E168E06B627F0843E5
:10187000A16841EA4231084394F8241040EA01404B
:10188000012904D1218D3E4A02EB41410843E16A1E
:1018900029B101F47871226B014342EA0100226808
:1018A000D168384B19400143D16020680169626BEF
:1018B00021F0406111430161206802F041FE70BBDC
:1018C000207F94F83810800340EA41022168C868FC
:1018D00044F2020398431043C8602069002820683E
:1018E00001690AD041F480310161206850F8C01FBD
:1018F00022696FF30D01114307E021F4803101618A
:10190000206850F8C01F6FF30D01016094F840008B
:1019100001280CD02068016921F001010161606992
:1019200001282068016B21F00F0111D013E0D4E9E8
:1019300011010843D4E913121143084321680A69CD
:1019400040F2FC739A43104340F001000861E6E75F
:10195000226A521E11430163E06D20F0020040F044
:101960000100E06561E70000C0FFFF5FC0FFFF7F8F
:1019700010000020400D0300000100500003005043
:101980000000FEFF0740F0FF704700002DE9F04126
:1019900098B00446142111A8FEF789FC442168463A
:1019A000FEF785FC4FF40041206800258A03384F7C
:1019B0000326384C4FF09048B0F1A04F10D0364B72
:1019C000984262D10F926846009100F0B7FF08B1CB
:1019D000FEF727FE3868401C3860012835D03CE00F
:1019E0000F926846009100F0A9FF08B1FEF719FEBA
:1019F0003868401C3860012807D1E06C40F4005082
:101A0000E064E06C00F400501690E06C40F00100DF
:101A1000E064E06C00F001001690E06C40F0020021
:101A2000E064E06C139500F0020016900420CDE90C
:101A3000110611A9404600F081FC41F20200139505
:101A4000CDE9110611A9154815E0E06C40F40050ED
:101A5000E064E06C00F400501690E06C40F001008F
:101A6000E064E06C139500F0010016904120CDE990
:101A7000110611A9404600F061FC00221146122017
:101A800000F0EAFD122000F0D9FD18B0BDE8F081A9
:101A90000000002000100240000100500004004837
:101AA0002DE9F04104463848806800F01F052068A1
:101AB00002F04EFD18B102210846BDE8F08194F80D
:101AC000580001280CD0012084F858002046FEF769
:101AD00073FC01004FF0000304D084F85830EBE7AA
:101AE0000220EAE7E06D40F60162904340F4807026
:101AF000E065264A20684FF0A046904201D1374663
:101B000000E00746874200D01DB9E76D27F4801733
:101B1000E765E76DFF0404D5276E27F00607276603
:101B200000E023661C27076084F858302068904244
:101B300001D1334600E00346834215D0A5B1052DFF
:101B400012D0092D10D0E36D43F48013E365904269
:101B500000D13046C0688001AED5E06D20F4005061
:101B600040F48050E065A7E7C268920105D5E26DB8
:101B700022F4005242F48052E2658268044B1A401B
:101B8000121D826098E70000000300500001005021
:101B9000C0FFFF7FF8B504004FF00000054600903D
:101BA00003D021680968002901DA012575E0617F09
:101BB00021B920772062204600F07EF8216808686D
:101BC000E66800F40002D4E9013018436369334346
:101BD0001843236918430B68314E334003430B60AD
:101BE0002068016809020ED56AB92E492E4A096893
:101BF000B1FBF2F1491C01EB8101890000E0491EB3
:101C000000910029FBD12949884202D14FF40011EB
:101C10000EE02649091D884202D14FF4800107E0F9
:101C200022490831884201D1810601E04FF080410C
:101C3000A3691F489E07A0F1040228D0DE0600F128
:101C400004031E6801D50E4300E08E431E60237E10
:101C50009E06184B1E6801D50E4300E08E431E60A1
:101C6000144B08331960237E9B07036801D50B438F
:101C700000E08B430360207EC00702D01068084359
:101C800001E0106888431060607F20B105E00368C0
:101C90008B430360F5E7012060772846F8BD00001C
:101CA0000F7E00FF10000020400D030000020140E5
:101CB000040401400C04014010B586B00446142110
:101CC0006846FEF7F4FA0C492068884212D10B48A6
:101CD000C16C41F00201C164C06C694600F00200B1
:101CE00005900220009003200190002002900448FB
:101CF00000F024FB06B010BD0002014000100240BD
:101D00000004004808B501004FF00000009003D027
:101D10000A681368002B01DA012008BD4B7F012BF4
:101D2000FAD1136843F00103136002224A7706498F
:101D3000064A0968B1FBF2F101EB810100E0491E9E
:101D400000910029FBD108BD1000002080841E00F6
:101D50002DE9F04790460D4604004FF0000A0FD0E1
:101D600075B1607901280ED04FF0010984F8059013
:101D700002202071A96808F01006042905D04AE065
:101D80000120BDE8F0870220FBE700F0FFFB0746DB
:101D90005FEA08004FF0030809D022E000F0F6FBEC
:101DA000C01B012803D92068406B000411D42068AF
:101DB000406B0004F2D42168686A086418E000BF30
:101DC00000F0E4FBC01B01280BD92068406B002801
:101DD00007DA206940F00800206184F804800320BD
:101DE000CFE72068406B0028EADB2168686A486416
:101DF0002068816C40F2FF32B2409143AA6AB2403F
:101E0000114381642068C16CFF22B2409143EA6AA9
:101E1000B2401143C164E869012808D12268916B7E
:101E20001F20B0408143286AB04008439063206877
:101E3000C06B0721B1408843A969012903D0022959
:101E400057D06969F1B300216B69AA681A430A4344
:101E50004FF4807101FA06F398432B79012B00D0DF
:101E6000002111434FF4007202FA06F398436B7994
:101E7000012B00D0002220F44047286842EA0108E4
:101E8000022838D057EA0007216808FA06F03843DC
:101E9000C863206801684FF48042B24091430160FA
:101EA0002268116840F6FE70B0408143E868B04097
:101EB0000843106020680168C022B240914301606D
:101EC000287B00E015E0297CC0F3830001F03C0191
:101ED00040EA811021680A6E40F60F73B3409A43BE
:101EE000B04002430A6684F80490002060715046B6
:101EF00047E70121A8E700F053FF0649884202D9CD
:101F000047F40047C0E704498842BDD947F48047F9
:101F1000BAE700000068890900B4C40470B5040081
:101F200003D02079002510B105E0012070BD657156
:101F3000204600F007F80220207125610120207161
:101F4000002070BD08B500680649884208D10648DF
:101F5000C16C41F48021C164C06C00F48020009009
:101F600008BD0000001000500010024018B5002409
:101F7000009448B10068C46B0090104431B1143033
:101F800000900360002018BD012018BD0830F7E75D
:101F9000F8B5A8B14279012A14D001224271022376
:101FA000037105682F6801F0100402FA04F6374344
:101FB0002F60154D154E2D68B5FBF6F56D1C04E030
:101FC0000120F8BD0220F8BD6D1E0095002DFBD14B
:101FD000002901680ED00D68A34005F478159D42D4
:101FE00003D14B6843F002034B6002710021417141
:101FF0000846F8BD0B68C3F34403012BF5D14B68C9
:1020000043F00103F0E7000010000020400D030042
:1020100010B5002140B190F825300122022B05D0E7
:102020000421C163012124E0012010BD03681C6864
:1020300024F001041C6003681C6824F00E041C607A
:10204000836C1C6824F480741C6090F84430046C29
:1020500003F01F0302FA03F36360D0E913345C60FA
:10206000436D33B11C6824F480741C60D0E91634CD
:102070005C6080F82520002280F82420084610BDEE
:1020800070B590F82520002401212346022A07D0AC
:102090000422C26380F8251080F82430012429E04E
:1020A0000268156825F0010515600268156825F0BD
:1020B0000E051560826C156825F48075156090F822
:1020C0004420056C02F01F0201FA02F26A60D0E9B6
:1020D00013255560426D32B1156825F48075156081
:1020E000D0E91625556080F8251080F82430816BE2
:1020F00001B18847204670BDF0B4016C0C680168DE
:102100000D6890F8442002F01F06042202FA06F33C
:10211000234211D06B070FD50B689B0603D40B68C5
:1021200023F004030B6090F8441001F01F018A4073
:10213000016C4A60016B1DE0022303FA06F7274297
:102140004FF0000C4FF0010218D0AF0716D50C6805
:10215000A40605D40C6824F00A040C6080F825203D
:1021600090F8441001F01F018B40016C4B6080F827
:1021700024C0C16A00291AD0F0BC08470823B34024
:10218000234214D02B0712D50B6823F00E030B60EB
:1021900090F84410036C01F01F0102FA01F159603C
:1021A000C26380F8252080F824C0416BE2E7F0BCD0
:1021B0007047000070B504000CD02C4A2168142030
:1021C000914209D22A4A0A44B2FBF0F080006064CE
:1021D00028480AE0012070BD244A52420A44B2FB5A
:1021E000F0F080006064214808382064022084F800
:1021F00025000A6847F6F0708243D4E902031843C9
:10220000D4E904352B431843A3691843E369184301
:10221000236A1843104308602046FEF79BF9A06824
:102220000025B0F5804F00D165602079A16C00F0E9
:102230007F000860D4E9130141606068401E0328F4
:1022400008D82046FEF7AAF9606D0560D4E91601AA
:10225000416002E06565A565E565E563012084F8F8
:10226000250084F82450002070BD000008040240BE
:10227000F8FFFDBF0000024070B5044690F824004E
:10228000002501280CD0012084F8240094F8256052
:102290000020012E06D084F824000225284670BDB7
:1022A000022070BD022684F82560E063206806687D
:1022B00026F0010606602046FEF784F9206B002810
:1022C0002068016802D041F00E0106E021F004010F
:1022D00001602068016841F00A010160A06C01689A
:1022E000C90303D5016841F480710160606D18B1C4
:1022F000016841F4807101602068016841F00101CA
:102300000160CBE7B0F5005F06D10548017821B147
:10231000012901D10021017070470121FBE7000074
:1023200074040020044910B50A68024202D0086013
:10233000FFF7E8FF10BD0000140401402DE9F04F45
:10234000DFF80C92002301260325A9F1040B85B0C8
:102350000F2709F1040AABF1040EF1E006FA03FCC1
:1023600012EA0C027ED00C7904F00304012C01D097
:10237000022C20D1846800945C0005FA04F80494CF
:10238000009C24EA08040094D1F80C80049C08FA0C
:1023900004F8009C48EA0408C0F80880446824EA6D
:1023A0000C0491F804C0CCF3001C0CFA03FC4CEABA
:1023B000040CC0F804C00C79E443A40702D18C6873
:1023C000012C0ED0C4684FEA430805FA08FC24EA41
:1023D0000C04D1F808C00CFA08FC4CEA040CC0F854
:1023E0000CC00C7904F00304022C16D1DC0800EBBD
:1023F000840CCDF808C0DCF820C05C074FEAD46834
:1024000007FA08F42CEA040C0C6904FA08F444EA0C
:102410000C04DDF808C0CCF8204004684FEA4308FB
:1024200005FA08FC24EA0C0491F804C00CF0030C33
:102430000CFA08FC4CEA040CC0F800C04C6814F418
:10244000403F7CD0434CD4F860C04CF0010CC4F841
:1024500060C0246E23F0030C04F0010400943E4C91
:10246000644400E06BE00294A4684FEA837C4FEA86
:102470001C7807FA08FC24EA0C04B0F1904F06D04F
:10248000DFF8D8C0604505D14FF0010C20E04FF0D7
:10249000000C1DE0DFF8C8C0604502D14FF0020C0F
:1024A00016E0DFF8C0C0604502D14FF0030C0FE02A
:1024B000DFF8B4C0604502D14FF0040C08E0DFF84B
:1024C000ACC0604502D14FF0050C01E04FF0060CA6
:1024D0000CFA08FC4CEA040C029CC4F808C0D9F8B9
:1024E0000040CC46D1F8048094435FEAC82800D568
:1024F0001443CCF80040DAF80040D446D1F8048008
:1025000094435FEA882800D51443CCF80040DBF8F8
:102510000040DC46D1F8048094435FEA883800D557
:102520001443CCF80040DEF80040F446D1F80480B3
:1025300094435FEAC83800D51443CCF800405B1CD4
:102540000C682246DC407FF409AF05B0BDE8F08F8F
:10255000080401400010024000000140000400484F
:1025600000080048000C0048001000480014004813
:10257000426921EA02030A4043EA0241816170474D
:102580000AB181617047816270470000014880682C
:10259000704700000400002002488168426811442E
:1025A000816070470400002010B50024032000F073
:1025B00073F80F2000F008F808B1012401E000F0E2
:1025C00025F8204610BD000070B50E4E05460024CB
:1025D000706898B14FF47A71B1FBF0F00A4909685C
:1025E000B1FBF0F000F0E8FE40B9102D06D2002259
:1025F0002946501E00F030F8356000E001242046E6
:1026000070BD000004000020100000200A4882B0C5
:10261000016E41F001010166016E01F001010091BE
:10262000816D41F080518165806D00F08050009097
:1026300002B000F07BB9000000100240002809DB66
:1026400000F01F02012191404009800000F1E020CC
:10265000C0F8001170470000F0B40E4B1B680C4628
:10266000C3F30223C3F10705042D00D90425191D66
:10267000072901D2002300E0DB1E012606FA05F13E
:10268000491E214099409E40761E16403143F0BCC1
:1026900003F02EBA0CED00E0064900F007020868CE
:1026A0004FF6FF03184040EA0220034A1043086037
:1026B000704700000CED00E00000FA05F8B50400DA
:1026C0004FF0000514D094F83A00052810D094F883
:1026D0003A0002280CD03448016E41F00101016635
:1026E000006E00F00100009094F83A0010B104E090
:1026F0000120F8BD002084F83900204600F058F889
:10270000A0682A4A4FF48071402836D0602834D01F
:1027100020680368E66A23F0100333430360D4E9BA
:1027200001031843D4E9033633431843237D012BB7
:1027300000D000210843616A0843A16A0843218E42
:1027400040EAC14094F8341040EA0161206803680F
:1027500013401943016020688169002909DBD4E92D
:1027600006121143226A836923F03F031A4311437F
:10277000816194F83A0090B114E020680368E66A39
:1027800023F0100333430360D4E901031843267D8B
:102790002369012E00D000210B431843CBE7012011
:1027A00084F83A002846F8BD00100240113E00E0CF
:1027B00030B587B0044614216846FDF778FD2468DB
:1027C0001D4D00221D4903234FF09040AC4209D11A
:1027D000CC6C44F00104CC64C96C01F0010105919A
:1027E0000E210CE0144D2D1DAC4211D1CC6C44F0E7
:1027F0000104CC64C96C01F001010591E021CDE92F
:10280000001302924FEA0D01FFF798FD07B030BDAB
:10281000094808308442F9D1C86C40F00200C8640D
:10282000C86C694600F0020005900720CDE900035E
:1028300002920348E8E70000000301400010024054
:1028400000040048002138B190F83A20052A03D04E
:1028500090F83A20012A02D0012108467047026808
:10286000136843F001031360042280F83A20F4E770
:102870002B492C4B0A6832214A432B4940B1B0F511
:10288000007F086829D020F4C06040F480602CE00C
:102890000868C0F34120022804D051F8800F20F4CA
:1028A000807022E0D1F8800020F48070C1F88000B0
:1028B000086820F4C06040F400700860B2FBF3F0D8
:1028C000401C00E0401E4A69520501D50028F9D19C
:1028D000486940050AD503207047C0F3412002280B
:1028E00006D051F8800F40F48070086000207047D7
:1028F000D1F8800040F48070C1F88000086820F4AE
:10290000C06040F400700860B2FBF3F0401C00E0CF
:10291000401E4A695205DBD50028F9D1D8E70000EE
:102920001000002040420F00007000400248816803
:1029300041F4804181607047007000402DE9F84308
:102940000446006800269D4D00035ED5A86D002753
:10295000C00008D4A86D40F08050A865A86D01277C
:1029600000F080500090DFF85892D9F8001041F440
:102970008071C9F80010FFF709FE804606E000BF2D
:10298000FFF704FEA0EB080002282BD8D9F80000BE
:10299000C005F5D5D5F8900010F4407014D0216C26
:1029A000814211D0D5F89000D5F8901020F44070F5
:1029B00041F48031C5F89010D5F8901021F48031A1
:1029C000C5F89010C5F89000C00711D0FFF7DEFDE4
:1029D000804641F2883907E0FFF7D8FDA0EB0801F7
:1029E000494501D903260BE0D5F890008007F3D5BF
:1029F000D5F89000216C20F440700843C5F8900091
:102A00001FB1A86D20F08050A8652078C00707D0BE
:102A1000D5F88800616820F003000843C5F88800F5
:102A20002078800707D5D5F88800A16820F00C0031
:102A30000843C5F888002078400707D5D5F88800F6
:102A4000E16820F030000843C5F8880020780007CE
:102A500007D5D5F88800216920F0C0000843C5F8E3
:102A600088002078800607D5D5F88800616920F4B1
:102A700040600843C5F888002078400607D5D5F89F
:102A80008800A16920F440500843C5F888002078E8
:102A9000000607D5D5F88800E16920F440400843D6
:102AA000C5F888002088C00507D5D5F88800216AB8
:102AB00020F440300843C5F888002088800507D5F9
:102AC000D5F88800616A20F440200843C5F88800E2
:102AD000208840050FD5D5F88800A16A20F4401061
:102AE0000843C5F88800A06AB0F5801F03D1E868E4
:102AF00040F48010E860208800050FD5D5F88800E4
:102B0000E16A20F440000843C5F88800E06AB0F5A7
:102B1000800F03D1E86840F48010E8602088C0048A
:102B20000FD5D5F88800216B20F040700843C5F818
:102B30008800206BB0F1807F03D1E86840F48010FA
:102B4000E86020884FF0006180040ED5D5F8880039
:102B5000626B20F040601043C5F88800606B8842CB
:102B600003D1E86840F48010E860208840040ED566
:102B7000D5F88800A26B20F040601043C5F88800AB
:102B8000A06B884203D1E86840F48010E860208898
:102B900000040FD5D5F88800E16B20F040500843C1
:102BA000C5F88800E06BB0F1805F03D1E86840F4BD
:102BB0008030E8603046BDE8F88300000010024035
:102BC000007000402DE9F0470E4605004FF0000769
:102BD00025D0DFF8AC81D8F8000000F00F00B0423B
:102BE0000CD2D8F8001021F00F013143C8F80010C2
:102BF000D8F8000000F00F00B04210D12968614CF5
:102C0000C80741F2883A5AD06868DFF87C910328F7
:102C100008D0022820682DD0400500282CDB012098
:102C2000BDE8F08720688001F9D5E06800F0030274
:102C3000E068C0F30310401C032A19D0534A00BFB8
:102C4000B2FBF0F0E268C2F306225043E268C2F33E
:102C50004162521C5200B0FBF2F0484517D9A068FF
:102C600010F0F00F0CD0880711D5A86840B10EE025
:102C7000474AE5E78003D0E700F0BCF8484506D9AD
:102C8000A06820F0F00040F08000A0608027A068DD
:102C9000696820F003000843A060FFF777FC8146D5
:102CA00006E000BFFFF772FCA0EB090151453AD8DE
:102CB000A068696800F00C00B0EB810FF2D12868C1
:102CC000810714D5400703D5A06840F4E060A060F8
:102CD0002878000705D5A06820F4605040F4E06033
:102CE000A060A068A96820F0F000084304E0802FED
:102CF00003D1A06820F0F000A060D8F80010404692
:102D000001F00F01B14216D9016821F00F013143E2
:102D10000160FFF73BFC074607E000BFFFF736FC0A
:102D2000C11B514501D903207AE7D8F8000000F013
:102D30000F00B042F2D12878400705D5A068E968B5
:102D400020F4E0600843A0602878000706D5A0685A
:102D5000296920F4605040EAC100A06000F04AF800
:102D6000A1680C4AC1F30311515C01F01F01C84076
:102D70000949086009480068BDE8F047FFF724BC2E
:102D8000002002400010024000B4C4040024F400FB
:102D900000366E01EE6D00081000002004000020D7
:102DA00001480068704700001000002005480649EF
:102DB00000688968054AC1F30221515C01F01F01D6
:102DC000C84070471000002000100240FE6D00084F
:102DD0000548064900688968054AC1F3C221515C6B
:102DE00001F01F01C8407047100000200010024091
:102DF000FE6D0008184910B58868C0F381021748B5
:102E0000012A0BD08A68164BC2F38102022A06D02F
:102E10008A68C2F38102032A03D0002010BD18463D
:102E200010BDCA6802F00304CA68C2F30312521C40
:102E3000032C02D0B0FBF2F001E0B3FBF2F0CA6861
:102E4000C968C2F306225043C1F34161491C4900DD
:102E5000B0FBF1F010BD0000001002400024F400AF
:102E600000366E012DE9F84304007AD02078F84D41
:102E7000C00747D0A868E96800F00C0001F0030122
:102E80000C2802D0082817D001E0032914D060686C
:102E9000B0F5803F17D0B0F5A02F286817D020F4E8
:102EA00080302860286820F4802028606068E0B1C5
:102EB000FFF76CFB064614E02868800322D56068A3
:102EC0000028D2D01EE0286840F48030EDE740F4BE
:102ED00080202860F7E700BFFFF758FB801B6428BD
:102EE00070D828688003F7D50CE0FFF74FFB064643
:102EF00005E000BFFFF74AFB801B6428F0D8286874
:102F00008003F7D4207880074CD5A868E96800F0E2
:102F10000C0001F003010C2802D004280DD001E0C0
:102F200002290AD0E068002828682BD040F480707D
:102F30002860FFF72BFB064619E02868400502D5FC
:102F4000E068002891D06868217C20F0FE4040EACB
:102F500001606860BF480068FFF736FB002800D1B9
:102F600020E072E1FFF712FB801B0228B8D8286826
:102F70004005F7D56868217C20F0FE4040EA0160FA
:102F800068600FE020F480702860FFF7FFFA0646C3
:102F900005E000BFFFF7FAFA801B0228A0D82868D6
:102FA0004005F7D42078000729D560690028D5F8B6
:102FB000940013D040F00100C5F89400FFF7E6FA42
:102FC000064606E090E000BFFFF7E0FA801B02280B
:102FD00086D8D5F894008007F6D510E020F00100DF
:102FE000C5F89400FFF7D2FA064604E0FFF7CEFAE0
:102FF000801B022878D8D5F894008007F6D4207872
:10300000400761D5A86D0026C00008D4A86D40F027
:103010008050A865A86D012600F0805000908E4871
:103020000168C90511D40168804641F480710160CE
:10303000FFF7ACFA074604E0FFF7A8FAC01B022826
:1030400052D8D8F80000C005F6D5A068012815D0E0
:103050000528D5F8900016D020F00100C5F89000A2
:10306000D5F8900020F00400C5F89000A06841F267
:103070008838B8B1FFF78AFA07460EE0D5F8900015
:1030800040F00100F0E740F00400C5F89000F5E7DB
:10309000FFF77CFAC11B414526D8D5F89000800780
:1030A000F6D50CE0FFF772FA074604E0FFF76EFA78
:1030B000C11B414518D8D5F890008007F6D41EB141
:1030C000A86D20F08050A8652078800629D5A069D9
:1030D0000028D5F8980013D040F00100C5F89800FA
:1030E000FFF754FA064606E075E000BFFFF74EFA18
:1030F000801B02286FD8D5F898008007F6D510E01D
:1031000020F00100C5F89800FFF740FA064604E0F9
:10311000FFF73CFA801B02285DD8D5F8980080079D
:10312000F6D4E069F0B3A968C1F3810103295DD049
:103130000228286820F08070286003D0FFF726FA64
:1031400004464BE0FFF722FA064604E0FFF71EFABA
:10315000801B02283FD828688001F7D4F4E90801D1
:103160006FF00F0202EB01110843218A5204490853
:1031700002EB4151A26841EA02210843217D4FF050
:103180007E42490802EB41610843217B40EAC1606D
:10319000E968324A11400843E860286840F08070CE
:1031A000286000E05EE0E86840F08070E860FFF7CB
:1031B000EDF9044605E000BFFFF7E8F9001B02281F
:1031C00009D828688001F7D54CE000BFFFF7DEF989
:1031D000001B022802D90320BDE8F883286880017B
:1031E000F4D4E8681E490840E8603BE00128F3D0C9
:1031F000E868226A00F00301914226D1616A00F07A
:10320000F0020901103991421FD1A26A00F4FE4177
:10321000B1EB022F19D194F82C2000F07841B1EBDA
:10322000C26F12D1218E00F4C00249084905A1F5F0
:103230000011914209D194F8341000F0C06049089F
:103240004906A1F1007181420CD00120C4E70000C1
:103250000010024004000020007000400C809F011C
:10326000FCFFEEFE0020B7E770B5040009D0606AED
:10327000002540B125616561A56294F85D0040B10B
:103280000CE0012070BD6068B0F5827FF4D0E5618C
:10329000F2E784F85C50204600F05CF8022084F8E5
:1032A0005D002068016821F040010160E1684FF491
:1032B000E062914201D9002001E04FF48050B1F565
:1032C000706F02D0914200D0A562A188228901F4DA
:1032D000827102F404421143227C02F00202114383
:1032E000227D02F001021143228B02F4007211438D
:1032F000227F02F03802114394F8202002F080026D
:103300001143228D02F40052114322681160A16919
:10331000042202EA114194F8242000F4805002F0C3
:103320001002114394F8342002F008021143A289DC
:1033300002F4706211430143206841602068C16952
:1033400021F40061C1612566012084F85D00002040
:1033500070BD000010B586B0044614216846FCF725
:10336000A6FF1249206888421DD11148016E41F420
:1033700080510166016E01F480510591C16C41F0EC
:103380000201C164C06C694600F00200059038205B
:1033900000900220019000200290039005200490EC
:1033A0000448FEF7CBFF06B010BD0000003001401E
:1033B000001002400004004810B5401EB0F1807FAC
:1033C00001D3012010BD4FF0E02460610F21601790
:1033D00002F08EFB0020A06107202061002010BDBC
:1033E00030B590F83C20012A42D0012280F83C20E0
:1033F000CA688B6822F440721A434B6822F48062D8
:103400001A430B6822F400621A430B6922F48052BB
:103410001A434B6922F400521A430B6B22F4804288
:103420001A430B8B22F4702242EA0342CB6922F04A
:1034300080521A430F4D03680024AB4202D00E4D58
:10344000AB4210D10D8D22F4700242EA05520D6A92
:1034500022F080722A434D6A22F000722A43C96A20
:1034600022F000520A435A6480F83C40002030BDEC
:10347000022030BD002C014000340140F0B590F82E
:103480003C300027012B0BD0012380F83C3013681F
:10349000042B23D006DC012B16D0022B06D118E01A
:1034A0000220F0BD082B1ED0102B21D00024234673
:1034B00026462546012920D0022931D001270021A6
:1034C00080F83C103846F0BD01240026630209252F
:1034D000F0E70224012663020A25EBE70424022612
:1034E00063020B25E6E70824032663020C25E1E7C7
:1034F0001024042663020D25DCE7D0F800E0DEF896
:1035000060C051689268B1402CEA040C214041EA45
:103510000C01AA4099431A400A43CEF86020CEE736
:10352000D0F800E0DEF864C051689268B1402CEA3F
:10353000040C214041EA0C01AA4099431A400A4375
:10354000CEF86420BBE70000F0B590F83C20012ADB
:103550003AD0012580F83C50022280F83D200368D3
:103560005A689C68194E1A4FB34201D0BB4204D12D
:1035700022F4700C4A6842EA0C02DFF858C002EAF2
:103580000C02D1F800C04CEA020CC3F804C0026877
:10359000B2420DD0B2F1804F0AD00F4B9A4207D001
:1035A0000E4B9A4204D0BA4202D00D4B9A4204D13B
:1035B000896824F080031943916080F83D50002110
:1035C00080F83C100846F0BD0220F0BD002C014000
:1035D000003401408FFFFFFD000400400008004060
:1035E0000040014010B50446022249B104290ED022
:1035F000082913D094F84700012816D0012010BDE7
:1036000094F844000128F9D184F844200FE094F89C
:1036100045000128F2D184F8452008E094F84600DE
:103620000128EBD184F8462001E084F847200422E9
:10363000206801F082FC2068416C41F40041416443
:103640001049206888420ED0B0F1804F0BD00E494F
:10365000884208D00D49884205D00D49884202D0E1
:103660000C49884207D181680B4A1140062906D0CF
:10367000B1F5803F03D0016841F0010101600020F5
:1036800010BD0000002C0140000400400008004074
:1036900000340140004001400700010070B50446BD
:1036A0000D460068002201F048FC2068036A1549B5
:1036B00044F244420B4206D1036A134203D1436CE5
:1036C00023F4004343642068036A0B4206D1016A75
:1036D000114203D1016821F00101016001203DB1D7
:1036E000042D08D0082D09D084F84700002070BDB3
:1036F00084F84400FAE784F84500F7E784F84600C8
:10370000F4E700001111110010B5040003D094F883
:103710003D0010B107E0012010BD002084F83C00FE
:10372000204600F023F8022084F83D00211D206887
:1037300001F09AFB012084F8480084F83E0084F8E8
:103740003F0084F8400084F8410084F8420084F887
:10375000430084F8440084F8450084F8460084F867
:10376000470084F83D00002010BD000008B5006847
:103770000649884208D10648016E41F4006101669D
:10378000006E00F40060009008BD0000002C0140B5
:103790000010024090F83D10012901D0012070472F
:1037A000022180F83D1000680F4988420ED0B0F128
:1037B000804F0BD00D49884208D00D49884205D072
:1037C0000C49884202D00C49884207D181680B4AD3
:1037D0001140062906D0B1F5803F03D0016841F0C1
:1037E0000101016000207047002C014000040040EE
:1037F0000008004000340140004001400700010083
:1038000070B5044690F83C000025012814D001262C
:1038100084F83C60022084F83D0022689068364BB2
:10382000184020F47F409060086870282ED010DC8B
:1038300010F00F0F03D021E04FF0020070BD4FEAEF
:103840002012072A1AD2DFE802F0525252524A38A6
:1038500040002A4BC21A984249D009DCB0F5805F7B
:103860000DD0B0F5005F1CD0B0F1101F06D13EE0C6
:10387000102A3CD0202A3AD0502A38D0012584F88A
:103880003D60002084F83C00284670BDCB68D1E93B
:103890000121206801F05EFB2068816841F077011A
:1038A00009E0CB68D1E90121206801F053FB2068D1
:1038B000816841F480418160E1E7CA684968206815
:1038C00001F0FCFC5021206806E0CA6849682068C5
:1038D00001F022FD6021206801F046FBCFE7CA68B5
:1038E0004968206801F0EAFC40212068F4E722687A
:1038F00001461046F0E7000088FFCEFF20001000D0
:103900002DE9F0410D46040003D094F83D0018B1B4
:1039100008E00120BDE8F081002084F83C0020464A
:1039200000F042F8022084F83D00206881681D4ABA
:1039300011408160211D206801F096FA226890688C
:103940009169166A2B68AF69034340F203308143E3
:1039500041EA0721A868EF6908434FF6FC41884314
:10396000E96840EA0720014328692F6A000140EA1C
:103970000730084369686D6926F0AA0646EA05150E
:10398000294393602268906154F8480B016201203A
:1039900004F81F096075A075E07620772075002077
:1039A000B8E70000F8BFFEFF10B586B0044614214A
:1039B0006846FCF77CFC1149206888421CD11048FD
:1039C000816D41F004018165816D01F00401059173
:1039D000C16C41F00201C164C06C002100F0020022
:1039E0000590C02000900220CDE90101CDE903102F
:1039F00069460448FEF7A2FC06B010BD000800406E
:103A0000001002400004004870B590F83E60044683
:103A100090F83F5090F8443090F84520022021B1B2
:103A200004290ED0012E1BD114E0012E18D1012B38
:103A300016D184F83E0084F8440001220021206859
:103A400020E0012D0CD1012A0AD184F83F0084F82E
:103A5000450014E0012D03D1012B01D1012A01D031
:103A6000012070BD84F83E0084F83F0084F84400D3
:103A700084F8450001220021206801F051FA01225A
:103A80000421206801F04CFA2068016841F001012E
:103A90000160002070BD0000F0B587B0044614211D
:103AA0006846FCF704FC1E492068884236D11D4850
:103AB000C16C41F00201C164C16C01F002010591C9
:103AC000C16C41F00101C164C06C022500F001002D
:103AD00005904FF4C04000900024CDE90154062623
:103AE000114FCDE9034669463846FEF727FCA80387
:103AF0000090CDE901540420CDE9034069463846E1
:103B0000FEF71CFC4FF4E0600090CDE90154CDE9D4
:103B1000034669464FF09040FEF710FC07B0F0BD39
:103B2000002C0140001002400004004870B504461B
:103B300090F83C0000260D4601280BD0012084F8A7
:103B40003C000C2A4AD007DC82B1042A20D0082A83
:103B500006D131E0022070BD102A53D0142A63D060
:103B60000126002084F83C00304670BD206801F03A
:103B700005FA2068816941F0080181612068816946
:103B800021F004018161206881692A69114311E0F3
:103B9000206801F045FA2068816941F40061816183
:103BA0002068816921F480618161206881692A69C6
:103BB00041EA02218161D4E7206801F07BFA2068A4
:103BC000C16941F00801C1612068C16921F00401A7
:103BD000C1612068C1692A69114311E0206801F0C0
:103BE000B3FA2068C16941F40061C1612068C1690C
:103BF00021F48061C1612068C1692A6941EA02211A
:103C0000C161AEE7206801F0E9FA2068016D41F07A
:103C1000080101652068016D21F00401016520683B
:103C2000016D2A69114311E0206801F00FFB206843
:103C3000016D41F4006101652068016D21F480612E
:103C400001652068016D2A6941EA0221016588E762
:103C500010B5040003D094F83D0010B107E0012036
:103C600010BD002084F83C00204600F022F802201D
:103C700084F83D00211D206801F0F6F8012084F849
:103C8000480084F83E0084F83F0084F8400084F83F
:103C9000410084F8420084F8430084F8440084F82A
:103CA000450084F8460084F8470084F83D00002071
:103CB00010BD704730B50446022269B1042912D004
:103CC000082917D00C291CD0102921D094F84300C2
:103CD000012824D0012030BD94F83E000128F9D1FC
:103CE00084F83E201DE094F83F000128F2D184F8CA
:103CF0003F2016E094F840000128EBD184F84020E2
:103D00000FE094F841000128E4D184F8412008E054
:103D100094F842000128DDD184F8422001E084F8C3
:103D200043200122206801F0FBF8194B2068194953
:103D3000194A984209D0884207D0904205D0174DC1
:103D4000A84202D0164DA84203D1456C45F4004567
:103D50004564206898420CD0B0F1804F09D0114BD7
:103D6000984206D0104B984203D0884201D090422E
:103D700007D181680D4A1140062906D0B1F5803F70
:103D800003D0016841F001010160002030BD000056
:103D9000002C01400034014000400140004401403B
:103DA00000480140000400400008004007000100F6
:103DB00030B504460D460068002201F0B1F82349F1
:103DC000214B20688A1198420BD0214B984208D091
:103DD000204B984205D0204B984202D01F4B98426E
:103DE00009D1036A0B4206D1036A134203D1436C23
:103DF00023F4004343642068036A0B4206D1016A3E
:103E0000114203D1016821F00101016001205DB17F
:103E1000042D0CD0082D0DD00C2D0ED0102D0FD050
:103E200084F84300002030BD84F83E00FAE784F8AF
:103E30003F00F7E784F84000F4E784F84100F1E739
:103E400084F84200EEE70000002C0140111111003F
:103E5000003401400040014000440140004801405E
:103E600090F88410012918D0012180F884102421B1
:103E7000C0F8881001680A680B6823F001030B6022
:103E800022F0005100224266036819602021C0F828
:103E9000881080F88420104670470220704710B5C3
:103EA0000446D0F88C00202801D0022010BD61B15A
:103EB0005AB10120E06600202067204601F060FD35
:103EC0000028F3D1E16E012901D0012010BD226844
:103ED00010211162226852E8001F41F0100142E8EF
:103EE0000013002BF6D110BD10B50E220449054871
:103EF000FFF7D5FF02490120483981F8490110BD7B
:103F0000BC04002020030020704770B5044690F8E0
:103F1000840001281DD0012084F884002420C4F8E6
:103F2000880020680568026822F0010202602068AB
:103F3000826822F060620A438260204601F00CFA37
:103F4000206805602020C4F88800002084F88400E0
:103F500070BD022070BD70B5044690F88400012841
:103F60001DD0012084F884002420C4F88800206833
:103F70000568026822F0010202602068826822F06F
:103F800060420A438260204601F0E6F9206805603D
:103F90002020C4F88800002084F8840070BD02202E
:103FA00070BD7047704770472DE9F04103680446C3
:103FB000D86919689A6840F60F0528424FF0000545
:103FC0004FF002060AD187067ED501F0200702F0E5
:103FD000805C57EA0C0777D0616F42E1B64FDFF89B
:103FE000DCC2174001EA0C0C57EA0C0C6CD05FEAFB
:103FF000C07C0CD05FEAC15C09D54FF0010CC3F85E
:1040000020C0D4F8903043F00103C4F89030830707
:1040100009D5D30707D023681E62D4F8903043F047
:104020000403C4F8903043070AD5D30708D02668A4
:1040300004233362D4F8903043F00203C4F8903084
:1040400003070CD501F020033B4308D02668082362
:104050003362D4F8903043F00803C4F8903003057D
:104060000BD54B0109D526684FF400633362D4F8B1
:10407000903043F02003C4F89030D4F89030002BF7
:104080003DD0800609D501F0200002F080510843A0
:1040900003D0616F09B120468847D4F890002168A9
:1040A0008968490602D410F0280F2AD0204601F072
:1040B000EBFA2068806840061ED52068083050E87A
:1040C000001F21F0400100E021E040E80012002A3A
:1040D000F3D1D4F8800078B179498163D4F88000B5
:1040E000FDF7CEFF00280AD0D4F88000816B00E0F5
:1040F0002046BDE8F04108472046FFF754FFBDE8E1
:10410000F0812046FFF74FFFC4F89050F7E7D4F84E
:104110006CC02027BCF1010F7ED15FEAC06C7BD55B
:104120005FEAC16C78D5102018622068806840066C
:1041300051D5D4F880100A6850680004000C3ED0B5
:10414000B4F85C3083423AD9A4F85E00086800688D
:1041500080062CD4216851E8000F20F4807041E8DB
:104160000002002AF6D12068083050E8001F21F034
:10417000010140E80012002AF5D12068083050E81B
:10418000001F21F0400140E80012002AF5D1C4F8D8
:104190008C70E566216851E8000F20F0100041E8BE
:1041A0000002002AF6D1D4F88000FDF731FF26671F
:1041B000B4F85C00B4F85E10401A81B207E0B4F8BD
:1041C0005C1081429BD11068800698D526672046F6
:1041D000FFF78AFE93E7B4F85C00B4F85E10401A6B
:1041E00081B2B4F85E00002889D0002987D0226807
:1041F00052E8000F20F4907042E80003002BF6D143
:104200002D4BDB432068083050E8002F1A4040E86F
:10421000002CBCF1000F00E00EE0F3D1C4F88C706C
:10422000E5666567206850E8002F22F0100240E83C
:104230000023002BF6D1C9E7C60209D5560207D5DF
:104240004FF4801018622046BDE8F041FFF7AABE87
:1042500003060AD501F0800302F40002134304D0E0
:10426000A16F00297FF444AF49E7420611D54A0601
:104270000FD52046016851E8002F22F0400241E8A6
:104280000023002BF6D1C0F88870856700F014F980
:1042900035E7020206D54A0004D52046BDE8F041C4
:1042A000FFF77FBEC00195D5002993DA2046BDE80F
:1042B000F041FFF729BE00000100001020010004BA
:1042C0001155000810B5040003D0D4F8880010B1CF
:1042D00007E0012010BD002084F88400204600F093
:1042E00027F82420C4F888002068016821F0010123
:1042F0000160A06A10B1204601F050F8204601F09C
:1043000005FA0128E6D02068416821F49041416017
:104310002068816821F02A0181602068016841F0ED
:10432000010101602046BDE8104001F09BB800008B
:10433000F0B597B00646142111A8FBF7B8FF442149
:104340006846FBF7B4FF3249306888425DD10420EB
:104350000024009003946846FEF7F0FA08B1FCF7D9
:1043600060F92C48816D41F480218165816D01F4F3
:1043700080211691C16C41F00201C164C06C11A989
:1043800000F0020016904FF4406011900220CDE939
:1043900012040720CDE914401F48FDF7CFFF204D40
:1043A0001E4805F1080128601D2068601020802744
:1043B00081E891006C61AC61EC6128462C62FDF7EC
:1043C000F9FE08B1FCF72DF9F567AE62144D1348FC
:1043D0006035143028601C20C5E90104C5E9034795
:1043E0006C61AC61EC6128462C62FDF7E3FE08B11C
:1043F000FCF717F9C6F88050002202212720AE6290
:10440000FEF72AF92720FEF719F917B0F0BD0000D2
:10441000004800400010024000040048080002402C
:10442000B40300207047704770B50446D0F8880088
:10443000202801D0022070BD39B332B32165A4F821
:104440005420A4F856200021C4F890102120C4F86C
:104450008800E06FD8B1154BC362E36F144818634E
:10446000E36F14485863E06F134681632068E56F7B
:1044700000F128022846216DFDF7FEFE38B110201C
:10448000C4F890002020C4F88800012070BD216885
:10449000402008622068083050E8001F41F0800189
:1044A00040E80012002AF5D1002070BD3B560008FC
:1044B0007D5600081B55000870477047FEE7000056
:1044C00007484189491C89B24181B1F5FA7F05D37A
:1044D0000021418140210348FEF74AB8704700009F
:1044E00034000020000800480C4801780C480129DD
:1044F00005D003290FD001221021FEF741B8094948
:104500008A89521C92B28A81FA2A06D300228A81B1
:104510001021FEF72DB80022EEE77047740400204A
:10452000000800483400002000EB8100006E00F01D
:10453000F840704700EB8100006E00F0F8407047D3
:104540008068C0F3C00070478068C0F3C000704747
:104550008068C0F3800070478068C0F380007047B7
:10456000C06810F4406F01D00020704701207047F0
:10457000042303EAD15310B518444369C1F304512D
:1045800007248C40A3438A401343436110BD042396
:1045900003EAD15310B518444369C1F30451072409
:1045A0008C40A3438A401343436110BD00EB81005C
:1045B000016E21F0004111430166704700EB81005C
:1045C000016E21F00041114301667047F0B59BB0C8
:1045D00000241794189420210FA81994FBF767FE64
:1045E0003C216846FBF763FE31484FF0A0410125AE
:1045F00001604FF40021C0E9011400F1100104260C
:10460000C46081E8700004774477056280F8244034
:10461000C462046380F83840C46380F84040FDF70A
:10462000B9F808B1FBF7FDFF17A921481794FCF76B
:10463000F7FC08B1FBF7F5FF1E480F9010A9062004
:104640007F2781E89100CDE913640FA91848FCF792
:1046500053FD08B1FBF7E5FF1748009001A90920B9
:1046600081E8A100CDE904640220089084200A902A
:104670008DF8244080208DF825400B908DF8264041
:104680008DF8304069460A48FCF72AF908B1FBF773
:10469000C8FF0A48009040F20F1001906946044894
:1046A000FCF71EF9002801D0FBF7BBFF1BB0F0BDE3
:1046B000600000200008302E0800900C00106032CE
:1046C000F0B597B03C216846FBF7F1FD20210FA81B
:1046D000FBF7EDFD2748264900240160C902C0E927
:1046E0000114C46004250461C0E9054504774477DA
:1046F0000126066280F82440C462046380F83840D2
:10470000C46380F84040FDF745F808B1FBF789FF26
:104710001948009001A909207F2781E8C100CDE94F
:10472000045484200A908DF8244080208DF8254080
:104730000B9008968DF826408DF8304069460D485C
:10474000FCF7CEF808B1FBF76CFF0C480F9010A9EE
:10475000062081E89100CDE913540FA90548FCF724
:10476000CBFC002801D0FBF75CFF17B0F0BD0000C8
:1047700000010050CC0000200800900C0200300422
:104780000C4810B50A49016089154160002240219A
:104790000261C0E902124903C0E90512FDF7FAF906
:1047A000002803D0BDE81040FBF73BBF10BD000060
:1047B000000201403801002000B58DB0302168466C
:1047C000FBF775FD1149104808600846FDF7A6FB88
:1047D00008B1FBF726FF002002218DF804008DF8B8
:1047E00005000290CDE906100091CDE90401039087
:1047F000024669460548FDF7ABFA002801D0FBF7F1
:1048000010FF0DB000BD0000001000505C01002042
:10481000114808B5816C41F004018164816C01F09C
:1048200004010091816C41F001018164806C0022DF
:1048300000F00100009011460B20FDF70DFF0B204A
:10484000FDF7FCFE002211460C20FDF705FFBDE838
:1048500008400C20FDF7F2BE001002402DE9F041A7
:1048600086B014216846FBF722FD3048C16C41F048
:104870000401C164C16C01F004010591C16C41F0F7
:104880002001C164C16C01F020010591C16C41F0AF
:104890000101C164C16C01F001010591C16C41F0DD
:1048A0000201C164C06C4FF0904700F00200059017
:1048B000002210213846FDF763FEDFF874800022E5
:1048C00050214046FDF75CFE4FF430504FF4881500
:1048D000CDE900050024694602944046FDF72EFD0F
:1048E000102000900126CDE9016469463846039402
:1048F000FDF724FD50200090CDE901646946404653
:104900000394FDF71BFD3002CDE9000569460294D2
:104910000848FDF713FD002203212820FDF79CFE27
:104920002820FDF78BFE06B0BDE8F08100100240A4
:1049300000080048000400480B4810B50949016010
:10494000002141608160C160016101758161C162C6
:10495000FDF7B4FE002803D0BDE81040FBF761BEB0
:1049600010BD000000030140700100200B4810B58D
:1049700009490160002141608160C16001610175E8
:104980008161C162FDF79AFE002803D0BDE81040A6
:10499000FBF747BE10BD000004030140AC0100203E
:1049A0000B4810B509490160002141608160C16078
:1049B000016101758161C162FDF780FE002803D0AD
:1049C000BDE81040FBF72DBE10BD000008030140FC
:1049D000E8010020124810B5104901604FF48271BF
:1049E000416000214FF47062C0E9021202220261AC
:1049F00001224261520282613022C0E9072107226E
:104A00004162C0E90A1201634163FEF72DFC0028F0
:104A100003D0BDE81040FBF704BE10BD00300140DC
:104A200024020020F0B59FB000241A941B941C941B
:104A30001D94149415941694179418941C21684688
:104A40001994FBF734FC342107A8FBF730FC4948E4
:104A500047490127C0E900142021816042F2331147
:104A6000C1604FF480718461C0E90417FEF74CFE09
:104A700008B1FBF7D6FD4FF480551AA93D481A95A9
:104A8000FEF7BEFE08B1FBF7CCFD3A48FFF7E0F8B1
:104A900008B1FBF7C6FD7026CDE9146414A93548AA
:104AA0001694FEF751FD08B1FBF7BBFD02201994E7
:104AB000CDE9170717AA01212E48FEF7DFFC08B140
:104AC000FBF7AFFD6027CDE90074029403940494D2
:104AD00005940022694627480694FFF727F808B195
:104AE000FBF79FFD042269462248FFF71FF808B133
:104AF000FBF797FD082269461E48FFF717F808B133
:104B0000FBF78FFD42F23210CDE900600C226946BE
:104B10001848FFF70BF808B1FBF783FDCDE90074E7
:104B2000102269461348FFF701F808B1FBF779FD39
:104B300007943C200894CDE909404FF40050CDE99A
:104B40000B500F20CDE90D044FF00070CDE90F4060
:104B50001194129407A907481394FEF741FC08B179
:104B6000FBF75FFD0348FEF797FF1FB0F0BD0000A5
:104B7000002C01408802002010B58CB0242168462A
:104B8000FBF795FB0024174809940A9414490B94E9
:104B9000C0E9001440F6FF71C0E90241046184617C
:104BA0000320CDE900040120CDE902040F21049186
:104BB000CDE90540CDE9074169460A48FEF7A0FE68
:104BC00008B1FBF72EFD099409A906480B94FEF7DE
:104BD000BBFC002801D0FBF724FD0CB010BD000089
:104BE00000080040D4020020184810B516490160A2
:104BF0004FF461214160002181600C22C160C0E955
:104C000004128161C161016241628162FFF75AFB56
:104C100008B1FBF706FD00210C48FFF79CF908B12D
:104C2000FBF7FFFC00210948FFF76FF908B1FBF71C
:104C3000F8FC0648FFF714F9002803D0BDE810403F
:104C4000FBF7EFBC10BD000000480040200300202F
:104C5000FEE7000000B5164887B0174990ED070A37
:104C60001C228DED000A90ED080A8DED010A90EDF1
:104C7000090A10488DED020A90ED040A8DED030A31
:104C800091ED000A69468DED040A90ED030A0C4887
:104C90008DED050A9FED090A8DED060AFBF7EEFA88
:104CA000202207490748FFF7BFFB07B000BD0000FF
:104CB00074040020000600204400002000000000D2
:104CC0001400002020030020124810B59FED100AA8
:104CD000382180ED060A1048FBF7E9FA00210F4859
:104CE000FEF7E8FF04210D48FEF7E4FF08210B481A
:104CF000FEF7E0FF00210948FEF774FC0421074895
:104D0000FEF770FCBDE8104008210448FEF76ABCBD
:104D10000000000000060020C805002088020020D6
:104D20000F4810B5B7EE000A80ED060A00210D48C5
:104D3000FFF73EF804210B48FFF73AF8082109482D
:104D4000FFF736F800210748FEF7A8FC04210548C4
:104D5000FEF7A4FCBDE8104008210248FEF79EBC07
:104D600000060020880200207CB51B4C94F8490105
:104D7000012830D104F148006B4601AA3D210546C7
:104D800002F00AF8002826D1009801F083FF94F879
:104D900048100020502917D194F84910312902D029
:104DA00032290CD010E0BCEEC00A10EE101AC9B2C5
:104DB000012901D0207007E00121217004E0BDEE3F
:104DC000C00A10EE101A618084F849014FF4807116
:104DD0002846FBF76CFA7CBD74040020FEE77047A0
:104DE000704710B5FDF7D8FBBDE81040FBF7D4BC09
:104DF00010B594B038216846FBF759FA14210EA873
:104E0000FBF755FA0020FDF733FD01200090000468
:104E1000032406210190CDE9084102205521CDE966
:104E20000A1007900C900D906846FEF71BF808B129
:104E300072B6FEE70F20CDE90E040020109011900D
:104E4000129004210EA8FDF7BDFE002801D072B615
:104E5000FEE714B010BD00000248016841F4700183
:104E60000160704788ED00E02DE9F0430268254BB2
:104E7000254D264E264C4FF08049984207D0484594
:104E800005D0A84203D0B04201D0A04203D122F005
:104E900070074A683A431F4FDFF87CC0DFF87C8018
:104EA00098420DD048450BD0A84209D0B04207D057
:104EB000A04205D0B84203D0604501D0404503D19F
:104EC00022F44075CA682A434D6922F080022A43C1
:104ED0008D68C5620D688562984207D0A04205D0F2
:104EE000B84203D0604501D0404501D10969016352
:104EF000016841F004010160012141610260BDE8E7
:104F0000F0830000002C0140000400400008004035
:104F1000003401400040014000440140004801408D
:104F200010B501F01F030121046A99408C4304620B
:104F3000016A9A401143016210BD10B501F00F03E0
:104F40000421046A99408C430462016A9A40114327
:104F5000016210BD10B5846842EA032224F47F4444
:104F60000A432243826010BD8268034B1A400A4301
:104F700042F00701816070478FFFCFFF2DE9F043BA
:104F8000056A026A22F001020262436882691E4CCD
:104F900025F0020522400C6822F0030214438A68BF
:104FA0001B4E2A43194D1B4FDFF86CC0DFF86C9085
:104FB000A84207D0B04205D0B84203D0604501D026
:104FC00048450AD1D0F8208028F00408C0F8208095
:104FD00022F00808CA6842EA0802A84207D0B04294
:104FE00005D0B84203D0604501D0484505D14D6990
:104FF00023F440731D438B692B43436084614968EC
:1050000041630262BDE8F0838FFFFEFF002C014088
:10501000003401400040014000440140004801408C
:10502000F0B5056A026A22F01002026242688369E2
:105030001A4C1C4E23400C6823F4407343EA0424AA
:1050400025F020038D6843EA0513154DA84201D0D1
:10505000B04208D1076A27F040070762CF6823F003
:10506000800343EA0713A8420AD0B04208D00E4D8D
:10507000A84205D00D4DA84202D00D4DA84207D13F
:105080004D6922F4406242EA85028D6942EA850256
:1050900042608461496881630362F0BDFF8FFFFE57
:1050A000002C014000340140004001400044014018
:1050B00000480140F0B5056A026A22F4807202627B
:1050C0004268C3691A4C1C4E23400C6823F003034A
:1050D0001C4325F400738D6843EA0523154DA8424F
:1050E00001D0B04208D1076A27F480670762CF6811
:1050F00023F4006343EA0723A8420AD0B04208D051
:105100000E4DA84205D00E4DA84202D00D4DA8422A
:1051100007D14D6922F4405242EA05128D6942EAF4
:1051200005124260C4614968C1630362F0BD0000BA
:105130008FFFFEFF002C0140003401400040014081
:105140000044014000480140F0B5056A026A22F4BB
:10515000805202624268C3691A4C1C4E23400C689C
:1051600023F4407343EA042425F400538D6843EA92
:105170000533154DA84201D0B04208D1076A27F483
:1051800080470762CF6823F4004343EA0733A8420D
:105190000AD0B04208D00E4DA84205D00D4DA8420D
:1051A00002D00D4DA84207D14D6922F4404242EA97
:1051B00085128D6942EA85124260C46149680164C2
:1051C0000362F0BDFF8FFFFE002C01400034014060
:1051D00000400140004401400048014030B5056AEC
:1051E000026A22F4803202624268036D114C23404D
:1051F0000C681C4325F400330D8943EA05430E4D2A
:10520000A8420BD00D4DA84208D00D4DA84205D0A4
:105210000C4DA84202D00C4DA84204D14D6922F495
:10522000803242EA05224260046549688164036273
:1052300030BD00008FFFFEFF002C01400034014014
:1052400000400140004401400048014030B5046A7C
:10525000026A22F4801202624268036D114D24F446
:1052600000142B400D6843EA05230D8944EA0554D8
:105270000D4DA8420BD00D4DA84208D00C4DA842B0
:1052800005D00C4DA84202D00B4DA84204D14D6967
:1052900022F4802242EA8522426003654968C164A3
:1052A000046230BDFF8FFFFE002C0140003401403E
:1052B00000400140004401400048014010B5036A2D
:1052C000046A24F0010404620E4CA0420BD00E4C80
:1052D000A04208D00D4CA04205D00D4CA04202D0F7
:1052E0000C4CA04203D1046A24F0040404628469D3
:1052F00024F0F00444EA021423F00A020A43846111
:10530000026210BD002C0140003401400040014009
:10531000004401400048014010B5036A046A24F0CB
:10532000100404620A4CA04202D00A4CA04203D1ED
:10533000046A24F040040462846923F0A00324F486
:10534000704444EA023243EA01118261016210BDF5
:10535000002C01400034014030B5416EB9B1026803
:1053600091689268C1F342610B4B520F9C5CE5005F
:1053700003F10804A25CB5FBF2F2A0F86A205A5CC3
:10538000615CD200B2FBF1F1A0F8681030BD0121E0
:10539000A0F86A10F8E70000DE6D000890F8281009
:1053A000090706D501684A68836B22F400421A4354
:1053B0004A6090F82810C90706D001684A68C36A95
:1053C00022F400321A434A6090F82810890706D563
:1053D00001684A68036B22F480321A434A6090F8ED
:1053E0002810490706D501684A68436B22F48022D9
:1053F0001A434A6090F82810C90606D501688A68E1
:10540000C36B22F480521A438A6090F828108906F0
:1054100006D501688A68036C22F400521A438A6038
:1054200090F82810490611D501684A68436C22F4A7
:1054300080121A434A60416CB1F5801F06D10168A1
:105440004A68836C22F4C0021A434A6090F828101C
:10545000090606D501684A68C06C22F4002202439E
:105460004A6070472DE9F84300260446C0F8906072
:10547000FDF78CF88046206800684FF02005000793
:105480006FF07E4713D5434600222904204600973B
:1054900000F0CAFA58B1216851E8000F20F08000EE
:1054A00041E80002002AF6D1C4F8885021E02068C3
:1054B0000068400722D5434600224FF48001204671
:1054C000009700F0B1FAC8B1216851E8000F20F44C
:1054D000907041E80002002AF6D12068083050E8B8
:1054E000001F21F0010140E80012002AF5D1C4F8A4
:1054F0008C5084F884600320BDE8F883C4F8885099
:10550000C4F88C5044F86C6F666026760020F3E790
:1055100010B5806AFEF747FD10BD70B5846AD4F8F7
:105520008800D4F88C5021688968090604D52128A0
:1055300002D1204600F0D2F820688068400604D5E9
:10554000222D02D1204600F09FF8D4F8900040F0C0
:105550001000C4F890002046FEF725FD70BD70B520
:105560000146806A0A6812684FF0000392062DD443
:10557000A0F85E30046854E8002F22F4807244E8FA
:105580000025002DF6D10268083252E8004F24F0C1
:10559000010442E80045002DF5D10268083252E8C6
:1055A000004F24F0400442E80045002DF5D12022B0
:1055B000C0F88C20C26E012A08D1046854E8002F7C
:1055C00022F0100244E80025002DF6D10367C26ED8
:1055D000012A02D0FEF726FF70BDA0F85E300968F0
:1055E0004968B0F85C2089B28A4201D9A0F85E10FF
:1055F000B0F85E10511A89B2FEF776FC70BD10B596
:105600000246806A01210167C16E012902D0FEF7BE
:105610000AFF10BDB0F85C104B08A0F85E301268AD
:10562000526892B2914201D3A0F85E20B0F85E2099
:10563000891A89B2FEF758FC10BD10B50146806A80
:1056400009680968890616D40021A0F85610016877
:10565000083151E8002F22F0800241E80023002B9E
:10566000F5D1026852E8001F41F0400142E8001302
:10567000002BF6D110BDFEF71FFF10BD10B5806ADC
:10568000FEF71BFF10BD000010B5026852E8001FB6
:1056900021F4907142E80013002BF6D10E4B026802
:1056A000083252E8001F194042E80014002CF6D1DD
:1056B000C16E012908D1016851E8002F22F01002C3
:1056C00041E80023002BF6D12021C0F88C100021E6
:1056D000C166416710BD0000FEFFFFEF026852E89F
:1056E000001F21F0C00142E80013002BF6D1016831
:1056F000083151E8002F22F4000241E80023002B7A
:10570000F5D12021C0F88810704700002DE9F04144
:105710000446016880682269E369104362690025D4
:105720001A431043DFF82CC20A688B4B1A4002431D
:105730000A6020684168E26821F4405111434160E9
:105740002168A069614501D0226A10438A68834BB1
:105750001A4002438A602068C16A626A21F00F0120
:105760001143C1627E4923687E488B420DD1D0F837
:10577000880010F0030006D0012855D0022842D03E
:1057800003283FD152E001203DE077498B420BD105
:10579000D0F8880010F00C0035D0042833D0082849
:1057A00040D00C282ED141E070498B420BD1D0F86B
:1057B000880010F0300026D0102835D0202831D0B5
:1057C00030281FD132E06A498B420BD1D0F88800D3
:1057D00010F0C00017D0402826D0802822D0C02842
:1057E00010D123E063450DD1D0F8880010F440605B
:1057F00009D0B0F5806F17D0B0F5006F12D0B0F5BA
:10580000406F13D010205B495B4F00264FF40042DD
:1058100063453BD160B1022813D004280BD008287F
:1058200072D10DE00220EEE70420ECE70820EAE761
:10583000FDF7BCFA01E0FDF7DDFA010001D17CE0E3
:105840001146606A37F810206768B1FBF2F007EB89
:105850004703834270D8B0EB073F6DD8002308465A
:105860001946FAF7D5FC090241EA106102027808EC
:10587000101871413A460023FAF7CAFC3F4AA0F5D6
:105880004071914258D82168C86056E0E3694FF6EC
:10589000EF7893422CD109284ED2DFE800F00508BA
:1058A000114D0D4D4D4D1000FDF780FA01E0FDF753
:1058B0008FFA010004D140E0FDF79CFAF9E71146A8
:1058C000606A37F81000B1FBF0F04100606801EB4E
:1058D0005001B1FBF0F0A0F1100141452CD84FF67A
:1058E000F0710140C0F3420001432068C16024E030
:1058F000092821D2DFE800F0050912200E2020201F
:105900001100FDF753FA02E016E0FDF761FA01001D
:1059100004D112E0FDF76EFAF9E71146606A37F834
:105920001000B1FBF0F1606801EB5001B1FBF0F049
:10593000A0F1100141450AD901250120A4F86A000F
:1059400024F8680F2846E6602661BDE8F08180B241
:1059500099E7000000800040F369FFCFFFF4FF11DA
:105960000038014000100240004400400048004060
:10597000004C00400024F400C66D0008FFFC0F003E
:1059800070B58165A0F85C2000210446C0F8901035
:105990002220C4F88C00D4F88000F0B11F4BC36201
:1059A000D4F880301E481863D4F880301D485863FE
:1059B000D4F8800013468163A56D21682A462431FE
:1059C000D4F88000FCF758FC38B11020C4F89000DF
:1059D0002020C4F88C00012070BD206940B12168EE
:1059E00051E8000F40F4807041E80002002AF6D12F
:1059F0002068083050E8001F41F0010140E8001223
:105A0000002AF5D12068083050E8001F41F040011D
:105A100040E80012002AF5D1002070BD5F55000853
:105A2000FF5500081B5500082DE9F0479946174619
:105A30000D4604464FF00008089E33E0701C31D03C
:105A4000FCF7A4FDA0EB0900B04218D8BEB1206855
:105A50000168490726D5802D24D0402D22D0C16968
:105A6000C94309070DD4082505622046FFF70CFE3F
:105A7000C4F8905084F884800120BDE8F0870320AA
:105A8000FBE7C069C04300050CD421684FF40060F7
:105A900008622046FFF7F8FD2020C4F8900084F843
:105AA0008480ECE72068C06935EA000004D000205B
:105AB000B842C3D00020E0E70120F9E70148FEF733
:105AC00073BA000020030020FEE74100080218BF5F
:105AD00004200A0E18BF40F001004FF07F4232EA66
